:100000000C9434000C9451000C9451000C94510049
:100010000C9451000C9451000C9451000C9451001C
:100020000C9451000C9451000C9451000C9451000C
:100030000C9451000C9451000C9451000C945100FC
:100040000C9451000C9451000C94BF010C9451007D
:100050000C9451000C9451000C9451000C945100DC
:100060000C9451000C94510011241FBECFEFD8E026
:10007000DEBFCDBF11E0A0E0B1E0E2ECF5E002C0F0
:1000800005900D92A433B107D9F721E0A4E3B1E0C4
:1000900001C01D92AC3BB207E1F70E94B5000C9481
:1000A000DF020C940000982F25E0929F159407948E
:1000B00015940794802D2EE0929F1594811D112494
:1000C00008950F931F93CF93DF93FC01808191815B
:1000D00002811381C481D581992344F481950E94C2
:1000E00053000E948D020E9457020BC0009719F422
:1000F0000E94400206C00E9453000E948D020E948E
:10010000610211234CF4802F81950E9453000E94BC
:100110009B020E946B020DC00115110519F40E948B
:10012000480207C0802F0E9453000E949B020E9439
:100130007502DD234CF48C2F81950E9453000E94A0
:10014000A4020E947F020CC0209719F40E944F0263
:1001500007C08C2F0E9453000E94A4020E948602B6
:10016000DF91CF911F910F910895CF93DF93CDB77A
:10017000DEB7A6970FB6F894DEBF0FBECDBF80E105
:1001800090E00E94E70181E191E00E940A020E9452
:1001900030020E9427020E9437020E94550210E09E
:1001A00000E00E9419028823E1F30E9422028D30B0
:1001B00059F08A3049F0E1E0F0E0EC0FFD1FE10F6B
:1001C000F11D80831F5FEDCFE1E0F0E0EC0FFD1F3C
:1001D000E10FF11D1082BE016F5D7F4FCE010196D0
:1001E0000E940401813051F4CE0181960E94610089
:1001F00088E291E00E940A02102FD3CF8CE291E0B6
:100200000E940A02102FCDCFAF92BF92CF92DF9201
:10021000EF92FF920F931F93CF93DF9300D000D004
:1002200000D0CDB7DEB77B016FE271E00E94AA0279
:1002300061E371E00E94AF02892B09F055C08E0185
:100240000F5F1F4F6E0187E0C80ED11CB12CAA248E
:10025000A3946FE271E080E090E00E94AA02FC01AA
:10026000892B09F443C090819D3209F041C09F0160
:100270002F5F3F4F91819923E1F0F9018A2D01C051
:100280008B2D319620E030E0A901440F551F220F3D
:10029000331F220F331F220F331F240F351F290F47
:1002A000311D2053310991919111EECF813031F4FC
:1002B00002C020E030E0319521953109F801219309
:1002C00031938F01EC15FD0521F689819A81F701A3
:1002D000918380838B819C81938382838D819E8196
:1002E0009583848381E009C080E007C080E005C079
:1002F0009111C6CF20E030E0E1CF26960FB6F894FA
:10030000DEBF0FBECDBFDF91CF911F910F91FF9048
:10031000EF90DF90CF90BF90AF900895FC011082D6
:10032000118212820895FC012181908181E02913BC
:1003300080E00895FC018181208190E0821B910979
:100340008034910519F481E082830895818191E0E0
:10035000980F91838F73E80FF11D63830895FC015B
:1003600091818081981749F0808191E0980F908366
:100370008F73E80FF11D8381089580E008951F9227
:100380000F920FB60F9211242F933F934F935F93C9
:100390006F937F938F939F93AF93BF93EF93FF934D
:1003A0006091C60086E391E00E949A01FF91EF916F
:1003B000BF91AF919F918F917F916F915F914F917D
:1003C0003F912F910F900FBE0F901F901895CF93D4
:1003D000DF93C82FD92F86E391E00E948E0189E731
:1003E00091E00E948E01F894D093C500C093C400A0
:1003F00088E98093C10086E08093C2007894DF9101
:10040000CF910895E0ECF0E0908195FFFDCF8093CF
:10041000C6000895CF93DF93EC018881882331F0E3
:1004200021960E94020289918111FBCFDF91CF9129
:10043000089586E391E00E94930191E0811190E09C
:10044000892F089586E391E00E94AF010895389ABC
:10045000409884B1866084B985B1897F85B9089553
:10046000389A4098239A539A2B985B980895389A13
:1004700040988AB180668AB98BB18F798BB908951B
:10048000109280001092810085B1897F85B908950E
:100490001092B0001092B1002B985B98089514BC94
:1004A00015BC8BB18F798BB90895409A0895E1E816
:1004B000F0E0108281E8809380002A988AE08083AF
:1004C0000895E1E8F0E0108281E2809380002998AD
:1004D0008AE080830895E1EBF0E0108283E8809366
:1004E000B0005B9882E080830895E1EBF0E0108239
:1004F00083E28093B0002B9882E08083089515BC3E
:1005000083E884BD5D9882E085BD089515BC83E2D3
:1005100084BD5E9882E085BD0895811102C010926D
:10052000810090E0909389008093880090938B00E5
:1005300080938A000895811102C01092B1008093C7
:10054000B3008093B4000895811101C015BC87BD2C
:1005500088BD089544E351E00E94B8020895FB016C
:10056000DC018D91019080190110D9F3990B089548
:10057000FA01A191B081009719F41097E1F0CD0133
:10058000DC01CD010D90002011F4C00113C0FB016E
:100590002191222319F02015D9F7F3CFFB012191E6
:1005A000201519F41E92119606C02223C1F70D9052
:1005B0000020A1F7D001FA01A193B0830895F89427
:0205C000FFCF6B
:1005C2004E4557205441524745543A205B005D0D39
:1005D200004D4143532046572056312E30204F4381
:1005E2005420323031380D004F4B0D003F0D0020AA
:0405F20000440000C1
:00000001FF
