:100000000C9434000C9451000C9451000C94510049
:100010000C9451000C9451000C9451000C9451001C
:100020000C9451000C9451000C9451000C9451000C
:100030000C9451000C9451000C9451000C945100FC
:100040000C9451000C9451000C948A000C945100B3
:100050000C9451000C9451000C9451000C945100DC
:100060000C9451000C94510011241FBECFEFD8E026
:10007000DEBFCDBF11E0A0E0B1E0E4E1F2E002C0FC
:1000800005900D92AA32B107D9F721E0AAE2B1E0BA
:1000900001C01D92A03BB207E1F70E9453000C94EF
:1000A00008010C94000080E190E00E94B20081E120
:1000B0000E94CD0081E191E00E94D5000E94F600EF
:1000C0000E94ED000E94FD000E9406010E94E400D3
:1000D000FDCFFC011082118212820895FC01218162
:1000E000908181E0291380E00895FC0181812081C5
:1000F00090E0821B91098034910519F481E082839C
:100100000895818191E0980F91838F73E80FF11D1D
:10011000638308951F920F920FB60F9211242F93AD
:100120003F934F935F936F937F938F939F93AF937F
:10013000BF93EF93FF936091C6008AE291E00E9423
:100140007500FF91EF91BF91AF919F918F917F913A
:100150006F915F914F913F912F910F900FBE0F9034
:100160001F901895CF93DF93C82FD92F8AE291E083
:100170000E9469008DE691E00E946900F894D09396
:10018000C500C093C40088E98093C10086E08093D5
:10019000C2007894DF91CF910895E0ECF0E0908177
:1001A00095FFFDCF8093C6000895CF93DF93EC01B8
:1001B0008881882331F021960E94CD008991811198
:1001C000FBCFDF91CF9108958AE291E00E946E000B
:1001D00091E0811190E0892F0895389A409884B178
:1001E000866084B985B1897F85B90895389A409829
:1001F000239A539A2B985B980895389A40988AB11D
:1002000080668AB98BB18F798BB90895409A089529
:04021000F894FFCF90
:100214004E4557205441524745543A205B005D0AED
:10022400004D4143532046572056312E30204F4332
:0A0234005420323031380A0A00006D
:00000001FF
